{
  "_format": "hh-sol-artifact-1",
  "contractName": "AlathiaGods",
  "sourceName": "contracts/AlathiaGods.sol",
  "abi": [
    {
      "inputs": [
        {
          "internalType": "string",
          "name": "_metadataURI",
          "type": "string"
        }
      ],
      "stateMutability": "nonpayable",
      "type": "constructor"
    },
    {
      "anonymous": false,
      "inputs": [
        {
          "indexed": true,
          "internalType": "address",
          "name": "account",
          "type": "address"
        },
        {
          "indexed": true,
          "internalType": "address",
          "name": "operator",
          "type": "address"
        },
        {
          "indexed": false,
          "internalType": "bool",
          "name": "approved",
          "type": "bool"
        }
      ],
      "name": "ApprovalForAll",
      "type": "event"
    },
    {
      "anonymous": false,
      "inputs": [
        {
          "indexed": false,
          "internalType": "string",
          "name": "battleName",
          "type": "string"
        },
        {
          "indexed": true,
          "internalType": "address",
          "name": "winner",
          "type": "address"
        },
        {
          "indexed": true,
          "internalType": "address",
          "name": "loser",
          "type": "address"
        }
      ],
      "name": "BattleEnded",
      "type": "event"
    },
    {
      "anonymous": false,
      "inputs": [
        {
          "indexed": true,
          "internalType": "string",
          "name": "battleName",
          "type": "string"
        },
        {
          "indexed": true,
          "internalType": "bool",
          "name": "isFirstMove",
          "type": "bool"
        }
      ],
      "name": "BattleMove",
      "type": "event"
    },
    {
      "anonymous": false,
      "inputs": [
        {
          "indexed": false,
          "internalType": "string",
          "name": "battleName",
          "type": "string"
        },
        {
          "indexed": true,
          "internalType": "address",
          "name": "player1",
          "type": "address"
        },
        {
          "indexed": true,
          "internalType": "address",
          "name": "player2",
          "type": "address"
        }
      ],
      "name": "NewBattle",
      "type": "event"
    },
    {
      "anonymous": false,
      "inputs": [
        {
          "indexed": true,
          "internalType": "address",
          "name": "owner",
          "type": "address"
        },
        {
          "indexed": false,
          "internalType": "uint256",
          "name": "id",
          "type": "uint256"
        },
        {
          "indexed": false,
          "internalType": "uint256",
          "name": "attackStrength",
          "type": "uint256"
        },
        {
          "indexed": false,
          "internalType": "uint256",
          "name": "defenseStrength",
          "type": "uint256"
        }
      ],
      "name": "NewGameToken",
      "type": "event"
    },
    {
      "anonymous": false,
      "inputs": [
        {
          "indexed": true,
          "internalType": "address",
          "name": "owner",
          "type": "address"
        },
        {
          "indexed": false,
          "internalType": "string",
          "name": "name",
          "type": "string"
        }
      ],
      "name": "NewPlayer",
      "type": "event"
    },
    {
      "anonymous": false,
      "inputs": [
        {
          "indexed": true,
          "internalType": "address",
          "name": "previousOwner",
          "type": "address"
        },
        {
          "indexed": true,
          "internalType": "address",
          "name": "newOwner",
          "type": "address"
        }
      ],
      "name": "OwnershipTransferred",
      "type": "event"
    },
    {
      "anonymous": false,
      "inputs": [
        {
          "indexed": false,
          "internalType": "address[2]",
          "name": "damagedPlayers",
          "type": "address[2]"
        }
      ],
      "name": "RoundEnded",
      "type": "event"
    },
    {
      "anonymous": false,
      "inputs": [
        {
          "indexed": true,
          "internalType": "address",
          "name": "operator",
          "type": "address"
        },
        {
          "indexed": true,
          "internalType": "address",
          "name": "from",
          "type": "address"
        },
        {
          "indexed": true,
          "internalType": "address",
          "name": "to",
          "type": "address"
        },
        {
          "indexed": false,
          "internalType": "uint256[]",
          "name": "ids",
          "type": "uint256[]"
        },
        {
          "indexed": false,
          "internalType": "uint256[]",
          "name": "values",
          "type": "uint256[]"
        }
      ],
      "name": "TransferBatch",
      "type": "event"
    },
    {
      "anonymous": false,
      "inputs": [
        {
          "indexed": true,
          "internalType": "address",
          "name": "operator",
          "type": "address"
        },
        {
          "indexed": true,
          "internalType": "address",
          "name": "from",
          "type": "address"
        },
        {
          "indexed": true,
          "internalType": "address",
          "name": "to",
          "type": "address"
        },
        {
          "indexed": false,
          "internalType": "uint256",
          "name": "id",
          "type": "uint256"
        },
        {
          "indexed": false,
          "internalType": "uint256",
          "name": "value",
          "type": "uint256"
        }
      ],
      "name": "TransferSingle",
      "type": "event"
    },
    {
      "anonymous": false,
      "inputs": [
        {
          "indexed": false,
          "internalType": "string",
          "name": "value",
          "type": "string"
        },
        {
          "indexed": true,
          "internalType": "uint256",
          "name": "id",
          "type": "uint256"
        }
      ],
      "name": "URI",
      "type": "event"
    },
    {
      "inputs": [],
      "name": "CELESTION",
      "outputs": [
        {
          "internalType": "uint256",
          "name": "",
          "type": "uint256"
        }
      ],
      "stateMutability": "view",
      "type": "function"
    },
    {
      "inputs": [],
      "name": "DEVIL",
      "outputs": [
        {
          "internalType": "uint256",
          "name": "",
          "type": "uint256"
        }
      ],
      "stateMutability": "view",
      "type": "function"
    },
    {
      "inputs": [],
      "name": "FIREBIRD",
      "outputs": [
        {
          "internalType": "uint256",
          "name": "",
          "type": "uint256"
        }
      ],
      "stateMutability": "view",
      "type": "function"
    },
    {
      "inputs": [],
      "name": "GRIFFIN",
      "outputs": [
        {
          "internalType": "uint256",
          "name": "",
          "type": "uint256"
        }
      ],
      "stateMutability": "view",
      "type": "function"
    },
    {
      "inputs": [],
      "name": "KAMO",
      "outputs": [
        {
          "internalType": "uint256",
          "name": "",
          "type": "uint256"
        }
      ],
      "stateMutability": "view",
      "type": "function"
    },
    {
      "inputs": [],
      "name": "KUKULKAN",
      "outputs": [
        {
          "internalType": "uint256",
          "name": "",
          "type": "uint256"
        }
      ],
      "stateMutability": "view",
      "type": "function"
    },
    {
      "inputs": [],
      "name": "MAX_ATTACK_DEFEND_STRENGTH",
      "outputs": [
        {
          "internalType": "uint256",
          "name": "",
          "type": "uint256"
        }
      ],
      "stateMutability": "view",
      "type": "function"
    },
    {
      "inputs": [
        {
          "internalType": "uint8",
          "name": "_choice",
          "type": "uint8"
        },
        {
          "internalType": "string",
          "name": "_battleName",
          "type": "string"
        }
      ],
      "name": "attackOrDefendChoice",
      "outputs": [],
      "stateMutability": "nonpayable",
      "type": "function"
    },
    {
      "inputs": [
        {
          "internalType": "address",
          "name": "account",
          "type": "address"
        },
        {
          "internalType": "uint256",
          "name": "id",
          "type": "uint256"
        }
      ],
      "name": "balanceOf",
      "outputs": [
        {
          "internalType": "uint256",
          "name": "",
          "type": "uint256"
        }
      ],
      "stateMutability": "view",
      "type": "function"
    },
    {
      "inputs": [
        {
          "internalType": "address[]",
          "name": "accounts",
          "type": "address[]"
        },
        {
          "internalType": "uint256[]",
          "name": "ids",
          "type": "uint256[]"
        }
      ],
      "name": "balanceOfBatch",
      "outputs": [
        {
          "internalType": "uint256[]",
          "name": "",
          "type": "uint256[]"
        }
      ],
      "stateMutability": "view",
      "type": "function"
    },
    {
      "inputs": [],
      "name": "baseURI",
      "outputs": [
        {
          "internalType": "string",
          "name": "",
          "type": "string"
        }
      ],
      "stateMutability": "view",
      "type": "function"
    },
    {
      "inputs": [
        {
          "internalType": "string",
          "name": "",
          "type": "string"
        }
      ],
      "name": "battleInfo",
      "outputs": [
        {
          "internalType": "uint256",
          "name": "",
          "type": "uint256"
        }
      ],
      "stateMutability": "view",
      "type": "function"
    },
    {
      "inputs": [
        {
          "internalType": "uint256",
          "name": "",
          "type": "uint256"
        }
      ],
      "name": "battles",
      "outputs": [
        {
          "internalType": "enum AlathiaGods.BattleStatus",
          "name": "battleStatus",
          "type": "uint8"
        },
        {
          "internalType": "bytes32",
          "name": "battleHash",
          "type": "bytes32"
        },
        {
          "internalType": "string",
          "name": "name",
          "type": "string"
        },
        {
          "internalType": "address",
          "name": "winner",
          "type": "address"
        }
      ],
      "stateMutability": "view",
      "type": "function"
    },
    {
      "inputs": [
        {
          "internalType": "string",
          "name": "_name",
          "type": "string"
        }
      ],
      "name": "createBattle",
      "outputs": [
        {
          "components": [
            {
              "internalType": "enum AlathiaGods.BattleStatus",
              "name": "battleStatus",
              "type": "uint8"
            },
            {
              "internalType": "bytes32",
              "name": "battleHash",
              "type": "bytes32"
            },
            {
              "internalType": "string",
              "name": "name",
              "type": "string"
            },
            {
              "internalType": "address[2]",
              "name": "players",
              "type": "address[2]"
            },
            {
              "internalType": "uint8[2]",
              "name": "moves",
              "type": "uint8[2]"
            },
            {
              "internalType": "address",
              "name": "winner",
              "type": "address"
            }
          ],
          "internalType": "struct AlathiaGods.Battle",
          "name": "",
          "type": "tuple"
        }
      ],
      "stateMutability": "nonpayable",
      "type": "function"
    },
    {
      "inputs": [
        {
          "internalType": "string",
          "name": "_name",
          "type": "string"
        }
      ],
      "name": "createRandomGameToken",
      "outputs": [],
      "stateMutability": "nonpayable",
      "type": "function"
    },
    {
      "inputs": [
        {
          "internalType": "uint256",
          "name": "id",
          "type": "uint256"
        }
      ],
      "name": "exists",
      "outputs": [
        {
          "internalType": "bool",
          "name": "",
          "type": "bool"
        }
      ],
      "stateMutability": "view",
      "type": "function"
    },
    {
      "inputs": [
        {
          "internalType": "uint256",
          "name": "",
          "type": "uint256"
        }
      ],
      "name": "gameTokens",
      "outputs": [
        {
          "internalType": "string",
          "name": "name",
          "type": "string"
        },
        {
          "internalType": "uint256",
          "name": "id",
          "type": "uint256"
        },
        {
          "internalType": "uint256",
          "name": "attackStrength",
          "type": "uint256"
        },
        {
          "internalType": "uint256",
          "name": "defenseStrength",
          "type": "uint256"
        }
      ],
      "stateMutability": "view",
      "type": "function"
    },
    {
      "inputs": [],
      "name": "getAllBattles",
      "outputs": [
        {
          "components": [
            {
              "internalType": "enum AlathiaGods.BattleStatus",
              "name": "battleStatus",
              "type": "uint8"
            },
            {
              "internalType": "bytes32",
              "name": "battleHash",
              "type": "bytes32"
            },
            {
              "internalType": "string",
              "name": "name",
              "type": "string"
            },
            {
              "internalType": "address[2]",
              "name": "players",
              "type": "address[2]"
            },
            {
              "internalType": "uint8[2]",
              "name": "moves",
              "type": "uint8[2]"
            },
            {
              "internalType": "address",
              "name": "winner",
              "type": "address"
            }
          ],
          "internalType": "struct AlathiaGods.Battle[]",
          "name": "",
          "type": "tuple[]"
        }
      ],
      "stateMutability": "view",
      "type": "function"
    },
    {
      "inputs": [],
      "name": "getAllPlayerTokens",
      "outputs": [
        {
          "components": [
            {
              "internalType": "string",
              "name": "name",
              "type": "string"
            },
            {
              "internalType": "uint256",
              "name": "id",
              "type": "uint256"
            },
            {
              "internalType": "uint256",
              "name": "attackStrength",
              "type": "uint256"
            },
            {
              "internalType": "uint256",
              "name": "defenseStrength",
              "type": "uint256"
            }
          ],
          "internalType": "struct AlathiaGods.GameToken[]",
          "name": "",
          "type": "tuple[]"
        }
      ],
      "stateMutability": "view",
      "type": "function"
    },
    {
      "inputs": [],
      "name": "getAllPlayers",
      "outputs": [
        {
          "components": [
            {
              "internalType": "address",
              "name": "playerAddress",
              "type": "address"
            },
            {
              "internalType": "string",
              "name": "playerName",
              "type": "string"
            },
            {
              "internalType": "uint256",
              "name": "playerMana",
              "type": "uint256"
            },
            {
              "internalType": "uint256",
              "name": "playerHealth",
              "type": "uint256"
            },
            {
              "internalType": "bool",
              "name": "inBattle",
              "type": "bool"
            },
            {
              "internalType": "uint256",
              "name": "gamesPlayed",
              "type": "uint256"
            },
            {
              "internalType": "uint256",
              "name": "gamesWon",
              "type": "uint256"
            },
            {
              "internalType": "uint256",
              "name": "gamesLost",
              "type": "uint256"
            }
          ],
          "internalType": "struct AlathiaGods.Player[]",
          "name": "",
          "type": "tuple[]"
        }
      ],
      "stateMutability": "view",
      "type": "function"
    },
    {
      "inputs": [
        {
          "internalType": "string",
          "name": "_name",
          "type": "string"
        }
      ],
      "name": "getBattle",
      "outputs": [
        {
          "components": [
            {
              "internalType": "enum AlathiaGods.BattleStatus",
              "name": "battleStatus",
              "type": "uint8"
            },
            {
              "internalType": "bytes32",
              "name": "battleHash",
              "type": "bytes32"
            },
            {
              "internalType": "string",
              "name": "name",
              "type": "string"
            },
            {
              "internalType": "address[2]",
              "name": "players",
              "type": "address[2]"
            },
            {
              "internalType": "uint8[2]",
              "name": "moves",
              "type": "uint8[2]"
            },
            {
              "internalType": "address",
              "name": "winner",
              "type": "address"
            }
          ],
          "internalType": "struct AlathiaGods.Battle",
          "name": "",
          "type": "tuple"
        }
      ],
      "stateMutability": "view",
      "type": "function"
    },
    {
      "inputs": [
        {
          "internalType": "string",
          "name": "_battleName",
          "type": "string"
        }
      ],
      "name": "getBattleMoves",
      "outputs": [
        {
          "internalType": "uint256",
          "name": "P1Move",
          "type": "uint256"
        },
        {
          "internalType": "uint256",
          "name": "P2Move",
          "type": "uint256"
        }
      ],
      "stateMutability": "view",
      "type": "function"
    },
    {
      "inputs": [
        {
          "internalType": "uint256",
          "name": "limit",
          "type": "uint256"
        }
      ],
      "name": "getLeaderboard",
      "outputs": [
        {
          "components": [
            {
              "internalType": "address",
              "name": "playerAddress",
              "type": "address"
            },
            {
              "internalType": "string",
              "name": "playerName",
              "type": "string"
            },
            {
              "internalType": "uint256",
              "name": "playerMana",
              "type": "uint256"
            },
            {
              "internalType": "uint256",
              "name": "playerHealth",
              "type": "uint256"
            },
            {
              "internalType": "bool",
              "name": "inBattle",
              "type": "bool"
            },
            {
              "internalType": "uint256",
              "name": "gamesPlayed",
              "type": "uint256"
            },
            {
              "internalType": "uint256",
              "name": "gamesWon",
              "type": "uint256"
            },
            {
              "internalType": "uint256",
              "name": "gamesLost",
              "type": "uint256"
            }
          ],
          "internalType": "struct AlathiaGods.Player[]",
          "name": "",
          "type": "tuple[]"
        }
      ],
      "stateMutability": "view",
      "type": "function"
    },
    {
      "inputs": [
        {
          "internalType": "address",
          "name": "addr",
          "type": "address"
        }
      ],
      "name": "getPlayer",
      "outputs": [
        {
          "components": [
            {
              "internalType": "address",
              "name": "playerAddress",
              "type": "address"
            },
            {
              "internalType": "string",
              "name": "playerName",
              "type": "string"
            },
            {
              "internalType": "uint256",
              "name": "playerMana",
              "type": "uint256"
            },
            {
              "internalType": "uint256",
              "name": "playerHealth",
              "type": "uint256"
            },
            {
              "internalType": "bool",
              "name": "inBattle",
              "type": "bool"
            },
            {
              "internalType": "uint256",
              "name": "gamesPlayed",
              "type": "uint256"
            },
            {
              "internalType": "uint256",
              "name": "gamesWon",
              "type": "uint256"
            },
            {
              "internalType": "uint256",
              "name": "gamesLost",
              "type": "uint256"
            }
          ],
          "internalType": "struct AlathiaGods.Player",
          "name": "",
          "type": "tuple"
        }
      ],
      "stateMutability": "view",
      "type": "function"
    },
    {
      "inputs": [
        {
          "internalType": "address",
          "name": "addr",
          "type": "address"
        }
      ],
      "name": "getPlayerToken",
      "outputs": [
        {
          "components": [
            {
              "internalType": "string",
              "name": "name",
              "type": "string"
            },
            {
              "internalType": "uint256",
              "name": "id",
              "type": "uint256"
            },
            {
              "internalType": "uint256",
              "name": "attackStrength",
              "type": "uint256"
            },
            {
              "internalType": "uint256",
              "name": "defenseStrength",
              "type": "uint256"
            }
          ],
          "internalType": "struct AlathiaGods.GameToken",
          "name": "",
          "type": "tuple"
        }
      ],
      "stateMutability": "view",
      "type": "function"
    },
    {
      "inputs": [],
      "name": "getTotalSupply",
      "outputs": [
        {
          "internalType": "uint256",
          "name": "",
          "type": "uint256"
        }
      ],
      "stateMutability": "view",
      "type": "function"
    },
    {
      "inputs": [
        {
          "internalType": "address",
          "name": "account",
          "type": "address"
        },
        {
          "internalType": "address",
          "name": "operator",
          "type": "address"
        }
      ],
      "name": "isApprovedForAll",
      "outputs": [
        {
          "internalType": "bool",
          "name": "",
          "type": "bool"
        }
      ],
      "stateMutability": "view",
      "type": "function"
    },
    {
      "inputs": [
        {
          "internalType": "string",
          "name": "_name",
          "type": "string"
        }
      ],
      "name": "isBattle",
      "outputs": [
        {
          "internalType": "bool",
          "name": "",
          "type": "bool"
        }
      ],
      "stateMutability": "view",
      "type": "function"
    },
    {
      "inputs": [
        {
          "internalType": "address",
          "name": "addr",
          "type": "address"
        }
      ],
      "name": "isPlayer",
      "outputs": [
        {
          "internalType": "bool",
          "name": "",
          "type": "bool"
        }
      ],
      "stateMutability": "view",
      "type": "function"
    },
    {
      "inputs": [
        {
          "internalType": "address",
          "name": "addr",
          "type": "address"
        }
      ],
      "name": "isPlayerToken",
      "outputs": [
        {
          "internalType": "bool",
          "name": "",
          "type": "bool"
        }
      ],
      "stateMutability": "view",
      "type": "function"
    },
    {
      "inputs": [
        {
          "internalType": "string",
          "name": "_name",
          "type": "string"
        }
      ],
      "name": "joinBattle",
      "outputs": [
        {
          "components": [
            {
              "internalType": "enum AlathiaGods.BattleStatus",
              "name": "battleStatus",
              "type": "uint8"
            },
            {
              "internalType": "bytes32",
              "name": "battleHash",
              "type": "bytes32"
            },
            {
              "internalType": "string",
              "name": "name",
              "type": "string"
            },
            {
              "internalType": "address[2]",
              "name": "players",
              "type": "address[2]"
            },
            {
              "internalType": "uint8[2]",
              "name": "moves",
              "type": "uint8[2]"
            },
            {
              "internalType": "address",
              "name": "winner",
              "type": "address"
            }
          ],
          "internalType": "struct AlathiaGods.Battle",
          "name": "",
          "type": "tuple"
        }
      ],
      "stateMutability": "nonpayable",
      "type": "function"
    },
    {
      "inputs": [],
      "name": "owner",
      "outputs": [
        {
          "internalType": "address",
          "name": "",
          "type": "address"
        }
      ],
      "stateMutability": "view",
      "type": "function"
    },
    {
      "inputs": [
        {
          "internalType": "address",
          "name": "",
          "type": "address"
        }
      ],
      "name": "playerInfo",
      "outputs": [
        {
          "internalType": "uint256",
          "name": "",
          "type": "uint256"
        }
      ],
      "stateMutability": "view",
      "type": "function"
    },
    {
      "inputs": [
        {
          "internalType": "address",
          "name": "",
          "type": "address"
        }
      ],
      "name": "playerTokenInfo",
      "outputs": [
        {
          "internalType": "uint256",
          "name": "",
          "type": "uint256"
        }
      ],
      "stateMutability": "view",
      "type": "function"
    },
    {
      "inputs": [
        {
          "internalType": "uint256",
          "name": "",
          "type": "uint256"
        }
      ],
      "name": "players",
      "outputs": [
        {
          "internalType": "address",
          "name": "playerAddress",
          "type": "address"
        },
        {
          "internalType": "string",
          "name": "playerName",
          "type": "string"
        },
        {
          "internalType": "uint256",
          "name": "playerMana",
          "type": "uint256"
        },
        {
          "internalType": "uint256",
          "name": "playerHealth",
          "type": "uint256"
        },
        {
          "internalType": "bool",
          "name": "inBattle",
          "type": "bool"
        },
        {
          "internalType": "uint256",
          "name": "gamesPlayed",
          "type": "uint256"
        },
        {
          "internalType": "uint256",
          "name": "gamesWon",
          "type": "uint256"
        },
        {
          "internalType": "uint256",
          "name": "gamesLost",
          "type": "uint256"
        }
      ],
      "stateMutability": "view",
      "type": "function"
    },
    {
      "inputs": [
        {
          "internalType": "string",
          "name": "_battleName",
          "type": "string"
        }
      ],
      "name": "quitBattle",
      "outputs": [],
      "stateMutability": "nonpayable",
      "type": "function"
    },
    {
      "inputs": [
        {
          "internalType": "string",
          "name": "_name",
          "type": "string"
        },
        {
          "internalType": "string",
          "name": "_gameTokenName",
          "type": "string"
        }
      ],
      "name": "registerPlayer",
      "outputs": [],
      "stateMutability": "nonpayable",
      "type": "function"
    },
    {
      "inputs": [],
      "name": "renounceOwnership",
      "outputs": [],
      "stateMutability": "nonpayable",
      "type": "function"
    },
    {
      "inputs": [
        {
          "internalType": "address",
          "name": "from",
          "type": "address"
        },
        {
          "internalType": "address",
          "name": "to",
          "type": "address"
        },
        {
          "internalType": "uint256[]",
          "name": "ids",
          "type": "uint256[]"
        },
        {
          "internalType": "uint256[]",
          "name": "amounts",
          "type": "uint256[]"
        },
        {
          "internalType": "bytes",
          "name": "data",
          "type": "bytes"
        }
      ],
      "name": "safeBatchTransferFrom",
      "outputs": [],
      "stateMutability": "nonpayable",
      "type": "function"
    },
    {
      "inputs": [
        {
          "internalType": "address",
          "name": "from",
          "type": "address"
        },
        {
          "internalType": "address",
          "name": "to",
          "type": "address"
        },
        {
          "internalType": "uint256",
          "name": "id",
          "type": "uint256"
        },
        {
          "internalType": "uint256",
          "name": "amount",
          "type": "uint256"
        },
        {
          "internalType": "bytes",
          "name": "data",
          "type": "bytes"
        }
      ],
      "name": "safeTransferFrom",
      "outputs": [],
      "stateMutability": "nonpayable",
      "type": "function"
    },
    {
      "inputs": [
        {
          "internalType": "address",
          "name": "operator",
          "type": "address"
        },
        {
          "internalType": "bool",
          "name": "approved",
          "type": "bool"
        }
      ],
      "name": "setApprovalForAll",
      "outputs": [],
      "stateMutability": "nonpayable",
      "type": "function"
    },
    {
      "inputs": [
        {
          "internalType": "string",
          "name": "newuri",
          "type": "string"
        }
      ],
      "name": "setURI",
      "outputs": [],
      "stateMutability": "nonpayable",
      "type": "function"
    },
    {
      "inputs": [
        {
          "internalType": "bytes4",
          "name": "interfaceId",
          "type": "bytes4"
        }
      ],
      "name": "supportsInterface",
      "outputs": [
        {
          "internalType": "bool",
          "name": "",
          "type": "bool"
        }
      ],
      "stateMutability": "view",
      "type": "function"
    },
    {
      "inputs": [
        {
          "internalType": "uint256",
          "name": "tokenId",
          "type": "uint256"
        }
      ],
      "name": "tokenURI",
      "outputs": [
        {
          "internalType": "string",
          "name": "",
          "type": "string"
        }
      ],
      "stateMutability": "view",
      "type": "function"
    },
    {
      "inputs": [],
      "name": "totalSupply",
      "outputs": [
        {
          "internalType": "uint256",
          "name": "",
          "type": "uint256"
        }
      ],
      "stateMutability": "view",
      "type": "function"
    },
    {
      "inputs": [
        {
          "internalType": "uint256",
          "name": "id",
          "type": "uint256"
        }
      ],
      "name": "totalSupply",
      "outputs": [
        {
          "internalType": "uint256",
          "name": "",
          "type": "uint256"
        }
      ],
      "stateMutability": "view",
      "type": "function"
    },
    {
      "inputs": [
        {
          "internalType": "address",
          "name": "newOwner",
          "type": "address"
        }
      ],
      "name": "transferOwnership",
      "outputs": [],
      "stateMutability": "nonpayable",
      "type": "function"
    },
    {
      "inputs": [
        {
          "internalType": "uint256",
          "name": "",
          "type": "uint256"
        }
      ],
      "name": "uri",
      "outputs": [
        {
          "internalType": "string",
          "name": "",
          "type": "string"
        }
      ],
      "stateMutability": "view",
      "type": "function"
    }
  ],
  "bytecode": "0x60806040523462000b13576200531d803803806200001d8162000b58565b92833981019060208183031262000b13578051906001600160401b03821162000b13570181601f8201121562000b13578051906001600160401b0382116200078a5762000074601f8301601f191660200162000b58565b928284526020838301011162000b135760005b82811062000afd57600083850160200152835184906001600160401b0381116200078a57600254600181811c9116801562000af2575b60208210146200076957601f811162000ab0575b50806020601f821160011462000a385760009162000a2c575b508160011b916000199060031b1c1916176002555b60038054336001600160a01b0319821681179092556040516001600160a01b03909116907f8be0079c531659141344cd1fd0a4f28419497f9722a3daafe3b4186f6b6457e090600090a380516001600160401b0381116200078a57600554600181811c9116801562000a21575b60208210146200076957601f8111620009ea575b50602091601f8211600114620009805791819260009262000974575b50508160011b916000199060031b1c1916176005555b604051608081016001600160401b038111828210176200078a57604052620001d962000b38565b600081528152600060208201526000604082015260006060820152600b54680100000000000000008110156200078a576001810180600b55811015620007b657600b6000528151805190927f0175b7a638427703f0dbe7bb9bbf987a2551717b34e79f33b5b1008d1fa01db9916001600160401b0381116200078a578360021b830154600181811c9116801562000969575b60208210146200076957601f81116200092e575b506020601f8211600114620008b15790806060939260039697600092620008a5575b50508160011b9160001990871b1c1916178560021b8401555b60208101516001600296871b94909401938401556040808201519584019590955501519101555161010081018181106001600160401b038211176200078a57604052600081526200030a62000b38565b600081526020820152600060408201526000606082015260006080820152600060a0820152600060c0820152600060e0820152600a54680100000000000000008110156200078a576001810180600a55811015620007b657600a6000528151600382901b7fc65a7bb8d6351c1cf70c95a316cc6a92839c986682d98bc35f958f4883f9d2a890810180546001600160a01b0319166001600160a01b039390931692909217909155602083015180519093906001600160401b0381116200078a5760018460031b84010154600181811c911680156200089a575b60208210146200076957601f81116200085c575b506020601f8211600114620007d857908060e0939260079697600092620007cc575b50508160011b916000199060031b1c19161760018660031b850101555b60408101516002600396871b9490940193840155606081015194830194909455608084015160048301805460ff191691151560ff1691909117905560a0840151600583015560c08401516006830155909201519101556200049662000b18565b6000815260006020820152620004ab62000b18565b60008082526020820152604051916001600160401b0360c08401908111908411176200078a5760c083016040526000835260006020840152620004ed62000b38565b60008152604084015260608301526080820152600060a0820152600c5490680100000000000000008210156200078a576001820180600c55821015620007b657600c60005280517fdf6966c971051c3d54ec59162606531493a51404a002842f56009d7e5cf4a8c7906003811015620007a057600784028201805460ff191660ff929092169190911781556020830151600182015560408301518051600290920191906001600160401b0382116200078a57825490600182811c921680156200077f575b6020831014620007695781601f84931162000727575b50602090601f8311600114620006bc57600092620006b0575b50508160011b916000199060031b1c19161790555b606082015160005b600281106200068a575050608082015192600093845b6002811062000662576007830284016005810187905560a086015160069190910180546001600160a01b0319166001600160a01b0392909216919091179055604051614765908162000b988239f35b9094602060019160ff885116908460031b60ff811b9283911b16911916179601910162000613565b81516001600160a01b0316600360078702850183010155602090910190600101620005fd565b015190508680620005e0565b6000858152602081209350601f198516905b8181106200070e5750908460019594939210620006f4575b505050811b019055620005f5565b015160001960f88460031b161c19169055868080620006e6565b92936020600181928786015181550195019301620006ce565b6200075790856000526020600020601f850160051c810191602086106200075e575b601f0160051c019062000b7e565b87620005c7565b909150819062000749565b634e487b7160e01b600052602260045260246000fd5b91607f1691620005b1565b634e487b7160e01b600052604160045260246000fd5b634e487b7160e01b600052602160045260246000fd5b634e487b7160e01b600052603260045260246000fd5b01519050878062000419565b60018560031b85010160005260206000209560005b601f1984168110620008435750916007959660019260e0959483601f1981161062000829575b505050811b0160018660031b8501015562000436565b015160001960f88460031b161c1916905587808062000813565b82820151885560019097019660209283019201620007ed565b620008939060018660031b8601016000526020600020601f840160051c810191602085106200075e57601f0160051c019062000b7e565b85620003f7565b90607f1690620003e3565b015190508780620002a1565b8460021b840160005260206000209560005b601f198416811062000915575091600395966001926060959483601f19811610620008fc575b505050811b018560021b840155620002ba565b015160001983891b60f8161c19169055878080620008e9565b82820151885560019097019660209283019201620008c3565b62000962908560021b85016000526020600020601f840160051c810191602085106200075e57601f0160051c019062000b7e565b856200027f565b90607f16906200026b565b0151905082806200019c565b601f19821692600560005260206000209160005b858110620009d157508360019510620009b7575b505050811b01600555620001b2565b015160001960f88460031b161c19169055828080620009a8565b9192602060018192868501518155019401920162000994565b62000a1a9060056000526020600020601f840160051c810191602085106200075e57601f0160051c019062000b7e565b8262000180565b90607f16906200016c565b905082015183620000ea565b60026000908152600080516020620052fd8339815191529250601f198416905b81811062000a975750908360019493921062000a7d575b5050811b01600255620000ff565b84015160001960f88460031b161c19169055838062000a6f565b9192602060018192868901518155019401920162000a58565b600260005262000aeb90600080516020620052fd833981519152601f840160051c810191602085106200075e57601f0160051c019062000b7e565b82620000d1565b90607f1690620000bd565b8060208092840101518282870101520162000087565b600080fd5b60408051919082016001600160401b038111838210176200078a57604052565b60405190602082016001600160401b038111838210176200078a57604052565b6040519190601f01601f191682016001600160401b038111838210176200078a57604052565b81811062000b8a575050565b6000815560010162000b7e56fe6080604052600436101561001257600080fd5b60003560e01c8062fdd58e14612f1d578063015a379214612e3457806301ffc9a714612dc657806302fe530514612c9f5780630677aa4e14612c8357806309c95e1014612c605780630daea2cd14612c445780630e89341c14612b9357806310898e4c14612b5b5780631107ae3d14612b2157806316801d1714612ad757806318160ddd1461094d5780632711162e14612a9d5780632ca04522146129205780632eb2c2d6146124df5780633835e2b5146124835780634b114691146124495780634e1273f4146122ab5780634f558e791461227d5780635c12cd4b146122455780635c93fc3d1461215c578063606d2e96146120d55780636c0360eb14611ff3578063703730a514611fd7578063715018a614611f75578063845f433b14611c725780638da5cb5b14611c49578063996d7bea14611b765780639b09cc8714611b205780639e4ecd1114611b045780639ec40aa314611acc578063a1b4f57c146118b2578063a22cb465146117c5578063a34b46fe1461162a578063ba27495614610a53578063bd85b03914610a27578063bf034b6914610998578063bf103a4d1461096b578063c4e41b221461094d578063c87b56dd14610845578063d2198cc514610829578063de96cefc1461080d578063e985e9c5146107b7578063efa1c4821461078b578063f1da73391461076f578063f242432a146103a6578063f2fde38b146102da5763f71d96cb1461022b57600080fd5b346102d55760203660031901126102d557600435600a548110156102d557600a60005260206000209060031b0160018060a01b0381541661026e60018301613339565b9160028101549060038101549060ff60048201541660058201549060076006840154930154936102b060405198899889526101008060208b0152890190612f9b565b95604088015260608701521515608086015260a085015260c084015260e08301520390f35b600080fd5b346102d55760203660031901126102d5576102f3612f4c565b6102fb61347f565b6001600160a01b0390811690811561035257600380546001600160a01b03198116841790915560405160009390929091167f8be0079c531659141344cd1fd0a4f28419497f9722a3daafe3b4186f6b6457e08484a3f35b60405162461bcd60e51b815260206004820152602660248201527f4f776e61626c653a206e6577206f776e657220697320746865207a65726f206160448201526564647265737360d01b6064820152608490fd5b346102d55760a03660031901126102d5576103bf612f4c565b6103c7612f62565b90608480356001600160401b0381116102d5576103e89036906004016130b8565b6001600160a01b03919083831633148015610744575b6104079061358c565b8285161561041581156135ef565b610420604435613802565b61042b606435613802565b91858716156106e4575b610624575b5050604435600052602094600086526040600020848616600052865260406000205461046a606435821015613649565b60443560005260008752604060002085871660005287526064359003604060002055604435600052600086526040600020848216600052865260406000206104b560643582546136a8565b905560405160443581526064358782015284821690858716907fc3d58168c5ae7397731d063d5bbf3d657854427343f4c083240f7aacaa2d0f6260403392a4803b6104fd575b005b60a06000610547958895604051978896879586938563f23a6e6160e01b9d8e87523360048801521660248601526044356044860152606435606486015284015260a4830190612f9b565b0393165af1600091816105f5575b506105cb57505060019061056761371e565b6308c379a014610596575b5061057957005b60405162461bcd60e51b815280610592600482016137ad565b0390fd5b61059e61373c565b90816105aa5750610572565b61059260405192839262461bcd60e51b845260048401526024830190612f9b565b6001600160e01b0319161490506104fb5760405162461bcd60e51b815280610592600482016136d5565b610616919250843d861161061d575b61060e818361307c565b8101906136b5565b9084610555565b503d610604565b92959194909360005b84518110156106d5576106408186613578565b519061064c8188613578565b518260005260046020526040600020548181106106805761067b9360005260046020520360406000205561355c565b61062d565b60405162461bcd60e51b815260206004820152602860248201527f455243313135353a206275726e20616d6f756e74206578636565647320746f74604482015267616c537570706c7960c01b60648201528b90fd5b5093509390949150858061043a565b959260009794919592975b86518110156107365780610706610731928b613578565b51610711828a613578565b51600052600460205261072a60406000209182546136a8565b905561355c565b6106ef565b509295969194909396610435565b50828416600052600160205260406000203360005260205261040760ff6040600020541690506103fe565b346102d55760003660031901126102d557602060405160048152f35b346102d55760003660031901126102d5576107b36107a7613979565b604051918291826133df565b0390f35b346102d55760403660031901126102d5576107d0612f4c565b6107d8612f62565b9060018060a01b03809116600052600160205260406000209116600052602052602060ff604060002054166040519015158152f35b346102d55760003660031901126102d557602060405160018152f35b346102d55760003660031901126102d557602060405160008152f35b346102d5576020806003193601126102d557610862600435614651565b90604051918260009160055492610878846132ff565b6001948686821691826000146109285750506001146108e6575b509264173539b7b760d91b6006939285602f60f81b6108d297526108be825180938a8785019101612f78565b01918201520360191981018552018361307c565b6107b3604051928284938452830190612f9b565b8591506005600052816000206000905b82821061091057505083010164173539b7b760d91b610892565b805489830185015288955087939091019086016108f6565b60ff1916818701528215159092028501909101915064173539b7b760d91b9050610892565b346102d55760003660031901126102d5576020600654604051908152f35b346102d55760203660031901126102d557602061098e610989612f4c565b6139f0565b6040519015158152f35b346102d55760203660031901126102d557600435600b548110156102d557600b600052610a139060021b7f0175b7a638427703f0dbe7bb9bbf987a2551717b34e79f33b5b1008d1fa01db9016109ed81613339565b906001810154906003600282015491015490604051948594608086526080860190612f9b565b926020850152604084015260608301520390f35b346102d55760203660031901126102d55760043560005260046020526020604060002054604051908152f35b346102d55760403660031901126102d55760043560ff81168091036102d55760249081356001600160401b0381116102d557610a939036906004016130b8565b90610a9d82613c2e565b805160038110156115a1576001036115b657805160038110156115a157600214611562576060810190815160018060a01b03815116331490811561154b575b501561150757608001518151516001600160a01b031633036114ff576000905b600260ff831610156113fb57611fe060ff9260051b160151166114bb5751516001600160a01b031633036114b45760005b600182148080156114aa575b15611466571561145f5760036040610b50336138fe565b015110155b156114105760405191610b8684519360208181880196610b7681838a612f78565b81016009815203019020546132ca565b5090600260ff841610156113fb57601f6005610bbc93600786831c160101931683549060031b60ff811b9283911b169119161790565b90556080610bc983613c2e565b0180515160ff166113f25760ff60005b166002039060ff821161117557516020015160ff166113e85760ff8060005b1691160360ff81116110955760ff1690600182036113dd57610c286001915b604051809281928751928391612f78565b8101039020901515907f54b82b77e7ae55a8e6c9e89deba70c7191dea2a3b08ae647b380e9f981d6a0f86000604051a315610c5f57005b610c6890613c2e565b606081015180516001600160a01b031633149081156113c6575b501561136e57608081015160ff8151161515908161135d575b501561130f5760018060a01b0360608201515116600052600760205260406000205460ff608083015151166060610cdd60018060a01b038286015151166138fe565b0151606084015151604090610cfa906001600160a01b0316613a6f565b015160608581015151919291610d18906001600160a01b0316613a6f565b01519260405194610d2886613046565b8552602085015260408401526060830152608082015260018060a01b0360206060840151015116600052600760205260406000205460ff602060808501510151166060610d8360018060a01b036020838801510151166138fe565b0151606085015160200151604090610da3906001600160a01b0316613a6f565b015160608681015160200151919291610dc4906001600160a01b0316613a6f565b01519260405194610dd486613046565b8552602085015260408401526060830152608082015260405191610df783612ff4565b600083526000602084015282602082015160018114808091611301575b156110bf575050506060810151604083015111610fe4575050606082015151610e479083906001600160a01b031661446c565b505b604051906000825b60028210610fc45750505060407fc6bf860cbc15f7020f73993a671f01bbb1831a8a7a12c126ca735eb632e7577591a160006080820151526000602060808301510152610ea2816040810151614402565b606081015151610eba906001600160a01b03166141e6565b60018060a01b03606083015151166000526008602052806002610ee1604060002054613441565b500155600a03600a8111610faf5760018060a01b036060830151511660005260086020526003610f15604060002054613441565b500155606081015160200151610f33906001600160a01b03166141e6565b60018060a01b03602060608401510151166000526008602052806002610f5d604060002054613441565b500155600a0391600a8311610f9b57506020606060018060a01b0392015101511660005260086020526003610f96604060002054613441565b500155005b634e487b7160e01b60009081526011600452fd5b82634e487b7160e01b60005260116004526000fd5b82516001600160a01b031681526020928301926001929092019101610e51565b60608201516040820151811061101a575050506060820151602001516110149083906001600160a01b031661446c565b50610e49565b60029293509061105b9161103d60036110338451613460565b50019182546141d9565b9055606081015161105360036110338751613460565b905551613460565b5001805460021992838201929183116110aa5760029261107c925551613460565b5001805491820191821161109557556060810151610e49565b83634e487b7160e01b60005260116004526000fd5b85634e487b7160e01b60005260116004526000fd5b806112f3575b156111ad57506110de60408401516080850151906136a8565b60608301519092909183831061110d5750505060608401515161101492508491506001600160a01b031661446c565b600293611140938060808801511160001461118a5750505060408401515b60036111378651613460565b50015551613460565b500180546002198101929083116110aa5760029261115f925551613460565b5001805490600382018092116111755755610e49565b84634e487b7160e01b60005260116004526000fd5b611193916141d9565b6060880151602001516001600160a01b031690915261112b565b60021480806112e5575b1561128157506111d060408301516080840151906136a8565b6060840151909290918383106112025750505060608401516020015161101492508491506001600160a01b031661446c565b60029361122c93806080850151116000146112615750505060408101515b60036111378351613460565b5001805491600383018093116110aa5760029261124a925551613460565b500180546002198101919082116111755755610e49565b61126a916141d9565b6060880151516001600160a01b0316909152611220565b9050806112d7575b611295575b5050610e49565b6112a160029151613460565b5001805491600383018093116110aa576002926112bf925551613460565b5001805490600382018092116111755755838061128e565b506002602083015114611289565b5060016020850151146111b7565b5060026020850151146110c5565b506001602086015114610e14565b60405162461bcd60e51b8152602060048201526021818401527f506c6179657273207374696c6c206e65656420746f206d616b652061206d6f766044820152606560f81b6064820152608490fd5b60ff91506020015116151583610c9b565b60405162461bcd60e51b815260206004820152602b818401527f4f6e6c7920706c617965727320696e207468697320626174746c652063616e2060448201526a6d616b652061206d6f766560a81b6064820152608490fd5b602001516001600160a01b03163314905083610c82565b610c28600091610c17565b60ff806001610bf8565b60ff6001610bd9565b85634e487b7160e01b60005260326004526000fd5b60405162461bcd60e51b8152602060048201526022818601527f4d616e61206e6f742073756666696369656e7420666f722061747461636b696e604482015261672160f01b6064820152608490fd5b6001610b55565b60405162461bcd60e51b815260206004820152601f818701527f43686f6963652073686f756c64206265206569746865722031206f72203221006044820152606490fd5b5060028314610b39565b6001610b2d565b60405162461bcd60e51b815260206004820152601d818601527f596f75206861766520616c7265616479206d6164652061206d6f7665210000006044820152606490fd5b600190610afc565b60405162461bcd60e51b815260206004820152601a818701527f596f7520617265206e6f7420696e207468697320626174746c650000000000006044820152606490fd5b602001516001600160a01b03163314905086610adc565b60405162461bcd60e51b8152602060048201526018818601527710985d1d1b19481a185cc8185b1c9958591e48195b99195960421b6044820152606490fd5b84634e487b7160e01b60005260216004526000fd5b60405162461bcd60e51b8152602060048201526041818601527f426174746c65206e6f7420737461727465642e20506c656173652074656c6c2060448201527f616e6f7468657220706c6179657220746f206a6f696e2074686520626174746c6064820152606560f81b608482015260a490fd5b346102d5576020806003193601126102d55760043590611648613979565b9060005b8251600019810190811161170c5781101561172257600180820180831161170c57815b611684575b505061167f9061355c565b61164c565b8451811015611707576116ba829160c08061169f878a613578565b510151906116ad838a613578565b510151116116c05761355c565b9061166f565b6116ca8588613578565b516116d58289613578565b516116e0878a613578565b526116eb8689613578565b506116f68289613578565b526117018188613578565b5061355c565b611674565b634e487b7160e01b600052601160045260246000fd5b5081519092818111156117bd5750905b61173b826131bb565b92611749604051948561307c565b828452601f19611758846131bb565b0160005b8181106117a75750505060005b82811061177e57604051806107b386826133df565b8061178c6117a29284613578565b516117978287613578565b526117018186613578565b611769565b82906117b161384d565b8282890101520161175c565b905090611732565b346102d55760403660031901126102d5576117de612f4c565b60243590811515908183036102d5576001600160a01b03169133831461185b5761182d9033600052600160205260406000208460005260205260406000209060ff801983541691151516179055565b6040519081527f17307eab39ab6107e8899845ad3d59bd9653f200f220920489ca2b5937696c3160203392a3005b60405162461bcd60e51b815260206004820152602960248201527f455243313135353a2073657474696e6720617070726f76616c20737461747573604482015268103337b91039b2b63360b91b6064820152608490fd5b346102d5576020806003193601126102d5576004356001600160401b0381116102d5576118e39036906004016130b8565b906118ec613b1f565b506118f682613c2e565b9182516003811015611ab657611a77576060830180515190916001600160a01b039182163314611a2857608061192b336138fe565b01516119ef57846119459160018252338686510152614402565b8082515116600052600783526004611961604060002054613460565b500160ff1990600182825416179055818484510151166000526007845260016004611990604060002054613460565b5001918254161790556040840151915151167f024187b16c217a79f8d8e6252b542ec6e278fa91304acd9cfd866f2bbf00bd08604051848152806119d8339587830190612f9b565b0390a36107b360405192828493845283019061310c565b60405162461bcd60e51b8152600481018590526011602482015270416c726561647920696e20626174746c6560781b6044820152606490fd5b60405162461bcd60e51b815260048101859052602160248201527f4f6e6c7920706c617965722074776f2063616e206a6f696e206120626174746c6044820152606560f81b6064820152608490fd5b60405162461bcd60e51b8152600481018390526017602482015276426174746c6520616c726561647920737461727465642160481b6044820152606490fd5b634e487b7160e01b600052602160045260246000fd5b346102d55760203660031901126102d5576004356001600160401b0381116102d557611aff6104fb9136906004016130b8565b613d0a565b346102d55760003660031901126102d557602060405160058152f35b346102d55760203660031901126102d5576004356001600160401b0381116102d5576080611b5c611b5760409336906004016130b8565b613c2e565b015160ff6020818351169201511682519182526020820152f35b346102d55760203660031901126102d5576004356001600160401b0381116102d557611b57611ba99136906004016130b8565b6060810190815160018060a01b0390818151163314908115611c39575b5015611bf4578251518116338103611be8575060206104fb935101511661446c565b90506104fb925061446c565b60405162461bcd60e51b815260206004820152601b60248201527f596f7520617265206e6f7420696e207468697320626174746c652100000000006044820152606490fd5b6020015182163314905084611bc6565b346102d55760003660031901126102d5576003546040516001600160a01b039091168152602090f35b346102d55760403660031901126102d5576001600160401b036004358181116102d557611ca39036906004016130b8565b6024358281116102d557611cbb9036906004016130b8565b611cc433613827565b611f3457600a54604051611cd78161302a565b3381526020810190848252600a60408201526019606082015260006080820152600060a0820152600060c0820152600060e0820152600160401b831015611f085760018301600a55611d2883613460565b929092611f1e57815183546001600160a01b0319166001600160a01b039190911617835551805190968111611f0857611d6460018401546132ff565b601f8111611ec8575b506020601f8211600114611e5057918160e092600794611e08999a600092611e45575b50508160011b916000199060031b1c19161760018501555b6040810151600285015560608101516003850155611ddb60808201511515600486019060ff801983541691151516179055565b60a0810151600585015560c081015160068501550151910155336000526007602052604060002055613d0a565b7f81ef79d1cda814a60c0fc60792e648a06d9c6bae67176346d1cc8b63030bfccd6040516020815280611e4033946020830190612f9b565b0390a2005b015190508a80611d90565b6001840160005260206000209760005b601f1984168110611eb0575082611e0898996007959360019360e096601f19811610611e97575b505050811b016001850155611da8565b015160001960f88460031b161c191690558a8080611e87565b828201518a5560019099019860209283019201611e60565b611ef890600185016000526020600020601f840160051c81019160208510611efe575b601f0160051c0190613ca7565b87611d6d565b9091508190611eeb565b634e487b7160e01b600052604160045260246000fd5b634e487b7160e01b600052600060045260246000fd5b60405162461bcd60e51b8152602060048201526019602482015278141b185e595c88185b1c9958591e481c9959da5cdd195c9959603a1b6044820152606490fd5b346102d55760003660031901126102d557611f8e61347f565b600380546001600160a01b0319811690915560405160009182906001600160a01b03167f8be0079c531659141344cd1fd0a4f28419497f9722a3daafe3b4186f6b6457e08284a3f35b346102d55760003660031901126102d557602060405160028152f35b346102d55760003660031901126102d557604051600090600554612016816132ff565b8083526001918083169081156120ad5750600114612053575b6107b38361203f8187038261307c565b604051918291602083526020830190612f9b565b6005600090815260209450917f036b6384b5eca791c62761152d0c79bb0604c104a5fb6f4eb0703f3154bb3db05b82841061209a5750505081019091019061203f8161202f565b8054858501870152928501928101612081565b6107b3955061203f93506020915091849260ff191682840152151560051b820101935061202f565b346102d55760203660031901126102d557600435600c548110156102d55761213c90600c6000526007602060002091020160ff8154169061215260018201549161212160028201613339565b90600660018060a01b039101541692604051958680966130ff565b6020850152608060408501526080840190612f9b565b9060608301520390f35b346102d55760003660031901126102d557600c54612179816131bb565b90612187604051928361307c565b808252600c6000908152602091828401917fdf6966c971051c3d54ec59162606531493a51404a002842f56009d7e5cf4a8c7835b8383106122225750505050604051918083019381845251809452604083019360408160051b85010192916000955b8287106121f65785850386f35b909192938280612212600193603f198a8203018652885161310c565b96019201960195929190926121e9565b600786600192612234859a999a613b6e565b8152019201920191909594956121bb565b346102d55760203660031901126102d5576107b3612269612264612f4c565b6138fe565b604051918291602083526020830190613264565b346102d55760203660031901126102d557600435600052600460205260206040600020541515604051908152f35b346102d55760403660031901126102d5576004356001600160401b038082116102d557366023830112156102d5578160040135906122e8826131bb565b926122f6604051948561307c565b82845260209260248486019160051b830101913683116102d557602401905b82821061242a575050506024359081116102d5576123379036906004016131d2565b82518151036123d35782519261234c846131bb565b9361235a604051958661307c565b808552612369601f19916131bb565b01368486013760005b81518110156123bc576123b7906123a76001600160a01b036123948386613578565b51166123a08387613578565b51906134d7565b6123b18288613578565b5261355c565b612372565b5050506107b3604051928284938452830190613230565b60405162461bcd60e51b815260048101839052602960248201527f455243313135353a206163636f756e747320616e6420696473206c656e677468604482015268040dad2e6dac2e8c6d60bb1b6064820152608490fd5b81356001600160a01b03811681036102d5578152908401908401612315565b346102d55760203660031901126102d5576001600160a01b0361246a612f4c565b1660005260076020526020604060002054604051908152f35b346102d55760203660031901126102d5576004356001600160401b0381116102d5576124cc60206124b9819336906004016130b8565b8160405193828580945193849201612f78565b8101600981520301902054604051908152f35b346102d55760031960a0368201126102d5576124f9612f4c565b90612502612f62565b906001600160401b03604480358281116102d5576125249036906004016131d2565b9060649081358481116102d55761253f9036906004016131d2565b9460849485359081116102d55761255a9036906004016130b8565b6001600160a01b0398891698909190338a1480156128f7575b61257c9061358c565b85518851036128a457881695861561259481156135ef565b8a15612861575b61279c575b60005b865181101561263357806125ba61262e9289613578565b518c6125c6838d613578565b51918060005282602092600084526040600020816000528452604060002054906125f283831015613649565b8360005260008552604060002090600052845203604060002055600052600081526040600020908b6000525261072a60406000209182546136a8565b6125a3565b5090919293968998878a604051604081527f4a39dc06d4c0dbc64b70af90fd698a233a518aa5d07e595d983b8c0526c8f7fb612672604083018c613230565b91808303602082015280612687339489613230565b0390a43b61269157005b604051978896879663bc197c8160e01b9b8c89523360048a01526024890152870160a0905260a487016126c391613230565b908487830301908701526126d691613230565b9184830301908401526126e891612f9b565b03815a602094600091f16000918161277c575b50612754575050600161270c61371e565b6308c379a01461271d575b61057957005b61272561373c565b806127305750612717565b60405162461bcd60e51b815260206004820152908190610592906024830190612f9b565b6001600160e01b031916146104fb5760405162461bcd60e51b815280610592600482016136d5565b61279591925060203d811161061d5761060e818361307c565b90836126fb565b96949398929590979160005b8551811015612852576127bb8187613578565b516127c68289613578565b519080600052602060048152604060002054918383106127ff576127fa94939291600491600052520360406000205561355c565b6127a8565b508b9067616c537570706c7960c01b8f7f455243313135353a206275726e20616d6f756e74206578636565647320746f748e6040519462461bcd60e51b8652600486015260286024860152840152820152fd5b509197909592989394966125a0565b98959996949392919060005b8b5181101561289557808c61071182612889612890958f613578565b5192613578565b61286d565b5090919293949699959861259b565b60405162461bcd60e51b815260206004820152602860248201527f455243313135353a2069647320616e6420616d6f756e7473206c656e6774682081860152670dad2e6dac2e8c6d60c31b818701528790fd5b5089600052600160205260406000203360005260205261257c60ff604060002054169050612573565b346102d5576020806003193601126102d5576004356001600160401b0381116102d5576129519036906004016130b8565b9061295a613b1f565b5061296c61296733613827565b613cbe565b61297582613aee565b612a605780604051818101908282526129a3816129956040820188612f9b565b03601f19810183528261307c565b519020926040516129b381612ff4565b338152600083820152604051906129c982612ff4565b60008252600084830152604051956129e08761300f565b600087528487015282604087015260608601526080850152600060a0850152612a1b600c549283928160405193828580945193849201612f78565b8101600981520301902055600160401b811015611f085782612a46826001612a4c9401600c556132ca565b90614232565b6107b360405192828493845283019061310c565b6064906040519062461bcd60e51b825260048201526016602482015275426174746c6520616c7265616479206578697374732160501b6044820152fd5b346102d55760203660031901126102d5576001600160a01b03612abe612f4c565b1660005260086020526020604060002054604051908152f35b346102d55760203660031901126102d5576004356001600160401b0381116102d557612b0d611b576107b39236906004016130b8565b60405191829160208352602083019061310c565b346102d55760203660031901126102d5576004356001600160401b0381116102d55761098e612b5660209236906004016130b8565b613aee565b346102d55760203660031901126102d5576107b3612b7f612b7a612f4c565b613a6f565b604051918291602083526020830190612fc0565b346102d5576020806003193601126102d5576040519060008260025491612bb9836132ff565b92838352600190858282169182600014612c24575050600114612be4575b506108d29250038361307c565b849150600260005281600020906000915b858310612c0c5750506108d2935082010185612bd7565b80548389018501528794508693909201918101612bf5565b60ff1916858201526108d295151560051b8501019250879150612bd79050565b346102d55760003660031901126102d5576020604051600a8152f35b346102d55760203660031901126102d557602061098e612c7e612f4c565b613827565b346102d55760003660031901126102d557602060405160038152f35b346102d5576020806003193601126102d5576001600160401b036004358181116102d557612cd19036906004016130b8565b91612cda61347f565b8251918211611f0857612cee6002546132ff565b601f8111612d95575b5080601f8311600114612d3157508192600092612d26575b50508160011b916000199060031b1c191617600255005b015190508280612d0f565b90601f19831693600260005282600020926000905b868210612d7d5750508360019510612d64575b505050811b01600255005b015160001960f88460031b161c19169055828080612d59565b80600185968294968601518155019501930190612d46565b612dc090600260005282600020601f850160051c810191848610611efe57601f0160051c0190613ca7565b83612cf7565b346102d55760203660031901126102d55760043563ffffffff60e01b81168091036102d557602090636cdb3d1360e11b8114908115612e23575b8115612e12575b506040519015158152f35b6301ffc9a760e01b14905082612e07565b6303a24d0760e21b81149150612e00565b346102d55760003660031901126102d557600b54612e51816131bb565b90612e5f604051928361307c565b808252600b6000908152602091828401917f0175b7a638427703f0dbe7bb9bbf987a2551717b34e79f33b5b1008d1fa01db9835b838310612efa5750505050604051918083019381845251809452604083019360408160051b85010192916000955b828710612ece5785850386f35b909192938280612eea600193603f198a82030186528851612fc0565b9601920196019592919092612ec1565b600486600192612f0c859a999a613a36565b815201920192019190959495612e93565b346102d55760403660031901126102d5576020612f44612f3b612f4c565b602435906134d7565b604051908152f35b600435906001600160a01b03821682036102d557565b602435906001600160a01b03821682036102d557565b60005b838110612f8b5750506000910152565b8181015183820152602001612f7b565b90602091612fb481518092818552858086019101612f78565b601f01601f1916010190565b90606080612fd78451608085526080850190612f9b565b936020810151602085015260408101516040850152015191015290565b604081019081106001600160401b03821117611f0857604052565b60c081019081106001600160401b03821117611f0857604052565b61010081019081106001600160401b03821117611f0857604052565b60a081019081106001600160401b03821117611f0857604052565b608081019081106001600160401b03821117611f0857604052565b90601f801991011681019081106001600160401b03821117611f0857604052565b6001600160401b038111611f0857601f01601f191660200190565b81601f820112156102d5578035906130cf8261309d565b926130dd604051948561307c565b828452602083830101116102d557816000926020809301838601378301015290565b906003821015611ab65752565b906131188183516130ff565b602091828101518383015261313c6040820151610100806040860152840190612f9b565b926060820151606084016000905b836002831061319d5750505050608082015190600060a085015b60028210613185575050505060e09060a0600180821b039101511691015290565b828060019260ff875116815201940191019092613164565b83516001600160a01b0316825292830192600192909201910161314a565b6001600160401b038111611f085760051b60200190565b81601f820112156102d5578035916131e9836131bb565b926131f7604051948561307c565b808452602092838086019260051b8201019283116102d5578301905b828210613221575050505090565b81358152908301908301613213565b90815180825260208080930193019160005b828110613250575050505090565b835185529381019392810192600101613242565b9060018060a01b03825116815260e08061328d6020850151610100806020870152850190612f9b565b93604081015160408501526060810151606085015260808101511515608085015260a081015160a085015260c081015160c0850152015191015290565b600c548110156132e957600c6000526007602060002091020190600090565b634e487b7160e01b600052603260045260246000fd5b90600182811c9216801561332f575b602083101461331957565b634e487b7160e01b600052602260045260246000fd5b91607f169161330e565b906040519182600082549261334d846132ff565b9081845260019485811690816000146133bc5750600114613379575b50506133779250038361307c565b565b9093915060005260209081600020936000915b8183106133a457505061337793508201013880613369565b8554888401850152948501948794509183019161338c565b91505061337794506020925060ff191682840152151560051b8201013880613369565b602080820190808352835180925260408301928160408460051b8301019501936000915b8483106134135750505050505090565b9091929394958480613431600193603f198682030187528a51613264565b9801930193019194939290613403565b600b548110156132e957600b60005260206000209060021b0190600090565b600a548110156132e957600a60005260206000209060031b0190600090565b6003546001600160a01b0316330361349357565b606460405162461bcd60e51b815260206004820152602060248201527f4f776e61626c653a2063616c6c6572206973206e6f7420746865206f776e65726044820152fd5b6001600160a01b031690811561350457600052600060205260406000209060005260205260406000205490565b60405162461bcd60e51b815260206004820152602a60248201527f455243313135353a2061646472657373207a65726f206973206e6f742061207660448201526930b634b21037bbb732b960b11b6064820152608490fd5b600019811461170c5760010190565b8051156132e95760200190565b80518210156132e95760209160051b010190565b1561359357565b60405162461bcd60e51b815260206004820152602e60248201527f455243313135353a2063616c6c6572206973206e6f7420746f6b656e206f776e60448201526d195c881bdc88185c1c1c9bdd995960921b6064820152608490fd5b156135f657565b60405162461bcd60e51b815260206004820152602560248201527f455243313135353a207472616e7366657220746f20746865207a65726f206164604482015264647265737360d81b6064820152608490fd5b1561365057565b60405162461bcd60e51b815260206004820152602a60248201527f455243313135353a20696e73756666696369656e742062616c616e636520666f60448201526939103a3930b739b332b960b11b6064820152608490fd5b9190820180921161170c57565b908160209103126102d557516001600160e01b0319811681036102d55790565b60809060208152602860208201527f455243313135353a204552433131353552656365697665722072656a656374656040820152676420746f6b656e7360c01b60608201520190565b60009060033d1161372b57565b905060046000803e60005160e01c90565b600060443d1061379957604051600319913d83016004833e81516001600160401b03918282113d60248401111761379c578184019485519384116137a4573d8501016020848701011161379c57506137999291016020019061307c565b90565b949350505050565b50949350505050565b60809060208152603460208201527f455243313135353a207472616e7366657220746f206e6f6e2d455243313135356040820152732932b1b2b4bb32b91034b6b83632b6b2b73a32b960611b60608201520190565b6040519061380f82612ff4565b60018252602036818401376138238261356b565b5290565b6001600160a01b031660009081526007602052604090205461384857600090565b600190565b6040519061385a8261302a565b8160e0600091828152606060208201528260408201528260608201528260808201528260a08201528260c08201520152565b906040516138998161302a565b82546001600160a01b0316815291829060e0906007906138bb60018201613339565b6020850152600281015460408501526003810154606085015260ff60048201541615156080850152600581015460a0850152600681015460c08501520154910152565b61390661384d565b5061391081613827565b1561393c5760018060a01b03166000526007602052613799613936604060002054613460565b5061388c565b60405162461bcd60e51b8152602060048201526015602482015274506c6179657220646f65736e27742065786973742160581b6044820152606490fd5b600a5490613986826131bb565b91613994604051938461307c565b808352600a600090815260207fc65a7bb8d6351c1cf70c95a316cc6a92839c986682d98bc35f958f4883f9d2a88186015b8484106139d3575050505050565b6008836001926139e28561388c565b8152019201930192906139c5565b6001600160a01b031660009081526008602052604090205461384857600090565b60405190613a1e82613061565b60006060838181528260208201528260408201520152565b90604051613a4381613061565b606060038294613a5281613339565b845260018101546020850152600281015460408501520154910152565b613a77613a11565b50613a81816139f0565b15613aad5760018060a01b03166000526008602052613799613aa7604060002054613441565b50613a36565b60405162461bcd60e51b815260206004820152601960248201527847616d6520746f6b656e20646f65736e27742065786973742160381b6044820152606490fd5b6020613b07918160405193828580945193849201612f78565b81016009815203019020541560001461384857600090565b604090600060a08351613b318161300f565b80948382528360208301526060818301528051613b4d81612ff4565b813682376060830152805190613b6282612ff4565b36823760808201520152565b90604051613b7b8161300f565b809260ff8154166003811015611ab65782526001808201549060209182850152600290613ba9828501613339565b60408601526040519182600386016000915b838310613c125750505050509081613bd560a09493612ff4565b60608501526040519060ff6005840154818116845260081c1690820152613bfb81612ff4565b6080840152600601546000196001831b0116910152565b81546001600160a01b0316815291840191908401908601613bbb565b613c36613b1f565b50613c4081613aee565b15613c6a57613c64610b766020613799938160405193828580945193849201612f78565b50613b6e565b60405162461bcd60e51b8152602060048201526015602482015274426174746c6520646f65736e27742065786973742160581b6044820152606490fd5b818110613cb2575050565b60008155600101613ca7565b15613cc557565b60405162461bcd60e51b815260206004820152601c60248201527f506c6561736520526567697374657220506c61796572204669727374000000006044820152606490fd5b6080613d15336138fe565b015161419c57613d2761296733613827565b613d2f613a11565b50613d39336141e6565b80600a0390600a821161170c576040908151602090818101904282523360601b858201526034815260608101966001600160401b0392828910848a1117611f085760ff60646006928b8a528551902006160660ff8116918215614186575b60ff9250613da48a613061565b89521696608082019188835260c060a08201918783520190888252600b5493600160401b851015611f0857600195868601600b55613de186613441565b959095611f1e57518051918211611f0857613dfc86546132ff565b601f8111614156575b508890601f83116001146140ee5760039594939291600091836140e3575b505060001982871b1c191690881b1785555b518685015551600284015551910155336000526008835284600020558351613e5c81612ff4565b600381526203078360ec1b83820152331561409557613e7a87613802565b82865191613e8783612ff4565b81835285368185013781613e9a8461356b565b526000825b614051575b505050508660005260008352846000203360005283528460002080549083820180921161170c575584518781528284820152600033917fc3d58168c5ae7397731d063d5bbf3d657854427343f4c083240f7aacaa2d0f62883392a4333b613f49575b5050613f1360065461355c565b60065582519485528401528201527fca8ab07e9ed17d119729fc652dd24df9d8430ca862dda4631925b5b4b99da36260603392a2565b8451838180613f8763f23a6e6160e01b95868352336004840152600060248401528c604484015287606484015260a0608484015260a4830190612f9b565b03816000335af160009181614032575b50614009575050613fa661371e565b6308c379a014613fd5575b613fbd575b3880613f06565b825162461bcd60e51b815280610592600482016137ad565b613fdd61373c565b80613fe85750613fb1565b82610592865192839262461bcd60e51b845260048401526024830190612f9b565b6001600160e01b031916149050613fb657825162461bcd60e51b815280610592600482016136d5565b61404a919250853d871161061d5761060e818361307c565b9038613f97565b8151811015614090578061406861408a9286613578565b516140738285613578565b516000526004895261072a8b6000209182546136a8565b82613e9f565b613ea4565b845162461bcd60e51b815260048101849052602160248201527f455243313135353a206d696e7420746f20746865207a65726f206164647265736044820152607360f81b6064820152608490fd5b015190503880613e23565b949392918891601f19821690886000528b6000209160005b8d828210614140575050978360039910614128575b505050811b018555613e35565b015160001983891b60f8161c1916905538808061411b565b838b015185558d96909401939283019201614106565b61418090876000528a600020601f850160051c8101918c8610611efe57601f0160051c0190613ca7565b38613e05565b905060ff821461170c57600160ff920190613d97565b60405162461bcd60e51b8152602060048201526015602482015274506c6179657220697320696e206120626174746c6560581b6044820152606490fd5b9190820391821161170c57565b600a9060405160208101914483524260408301526bffffffffffffffffffffffff199060601b1660608201526054815261421f81613061565b51902006801561422c5790565b50600590565b929190611f1e57805192600380851015611ab65760ff1982541660ff80961617825560209081840151906001918285015560029081850160408701518051906001600160401b038211611f0857819061428b84546132ff565b601f81116143d2575b508790601f831160011461437057600092614365575b505060001982851b1c191690851b1790555b606086015160005b8381106143495750505090608085015191600093845b828110614319575050505050600582015560a09091015160069190910180546001600160a01b0319166001600160a01b03929092169190911790559050565b9091928261433d8697848d85995116919060031b60ff811b9283911b169119161790565b960194939291016142da565b81516001600160a01b03168782018401559085019084016142c4565b0151905038806142aa565b90879350601f1983169185600052896000209260005b8b8282106143bc57505084116143a4575b505050811b0190556142bc565b015160001983871b60f8161c19169055388080614397565b8385015186558b97909501949384019301614386565b6143fc908560005289600020601f850160051c8101918b8610611efe57601f0160051c0190613ca7565b38614294565b9061440c82613aee565b1561443057612a46610b766020613377948160405193828580945193849201612f78565b60405162461bcd60e51b815260206004820152601460248201527310985d1d1b1948191bd95cdb89dd08195e1a5cdd60621b6044820152606490fd5b614474613b1f565b5081516003811015611ab657600214614615576002825260018060a01b038091168060a08401527fae6e5eafb6cd1cb4b139e7a0b9140aa182ee7d50e99f50d660156f79212acbc060408085016144cc868251614402565b614605606087019186835151166145e6856000998a93845289600561458584600797856020809d8b8252600a60026145648787205486868651015116885288882054908484614541600461451f85613460565b50019360ff19948581541690556019600361453983613460565b500155613460565b500155600461454f83613460565b50019081541690556019600361453983613460565b500155518051831688810361460b5750015116945b8152888c522054613460565b5001614591815461355c565b905516998a815283875260056145a983832054613460565b50016145b5815461355c565b905589815283875260066145cb83832054613460565b50016145d7815461355c565b90558a81528387522054613460565b50016145f2815461355c565b9055519251928284938452830190612f9b565b0390a390565b9250505094614579565b60405162461bcd60e51b815260206004820152601460248201527310985d1d1b1948185b1c9958591e48195b99195960621b6044820152606490fd5b80156147115780816000925b6146fd57508061466c8361309d565b9261467a604051948561307c565b808452601f196146898261309d565b01366020860137915b61469b57505090565b816000199182840193841161170c5783600a80830480950481118515151661170c576146cd60ff9384928702906141d9565b1660300191821161170c57855111156132e95760f81b6001600160f81b03191660001a908401601f015380614692565b91614709600a9161355c565b92048061465d565b5060405161471e81612ff4565b60018152600360fc1b60208201529056fea264697066735822122034a715f0b37a6e6f484a3af7b527cfc8e0143cf8f008fd4d1525811f6b6b5bad64736f6c63430008100033405787fa12a823e0f2b7631cc41b3ba8828b3321ca811111fa75cd3aa3bb5ace",
  "linkReferences": {},
  "deployedLinkReferences": {}
}